{
  "contractName": "Fibonacci",
  "abi": [
    {
      "constant": false,
      "inputs": [
        {
          "internalType": "uint256",
          "name": "n",
          "type": "uint256"
        }
      ],
      "name": "generateFib",
      "outputs": [],
      "payable": false,
      "stateMutability": "nonpayable",
      "type": "function"
    }
  ],
  "bytecode": "0x608060405234801561001057600080fd5b506101ec806100206000396000f3fe608060405234801561001057600080fd5b506004361061002b5760003560e01c80632ddec39b14610030575b600080fd5b61005c6004803603602081101561004657600080fd5b810190808035906020019092919050505061005e565b005b60006001908060018154018082558091505090600182039060005260206000209060209182820401919006909192909190916101000a81548160ff021916908360ff1602179055505060006001908060018154018082558091505090600182039060005260206000209060209182820401919006909192909190916101000a81548160ff021916908360ff160217905550506000600290505b818110156101b357600080600283038154811061011057fe5b90600052602060002090602091828204019190069054906101000a900460ff166000600184038154811061014057fe5b90600052602060002090602091828204019190069054906101000a900460ff1603908060018154018082558091505090600182039060005260206000209060209182820401919006909192909190916101000a81548160ff021916908360ff1602179055505080806001019150506100f7565b505056fea265627a7a723158204c636e8b6b765de0758b51e5b53442ff7613114f854b1eb445a808d02fe044f264736f6c63430005100032",
  "source": "// SPDX-License-Identifier: MIT\npragma solidity >=0.4.21 <0.7.0;\n\ncontract Fibonacci {\n    uint8[] fibseries;\n\n    // n = how many in the series to return\n    function generateFib(uint256 n) public {\n        // set 1st and 2nd entries\n        fibseries.push(1);\n        fibseries.push(1);\n\n        // generate subsequent entries\n        for (uint256 i = 2; i < n; i++) {\n            fibseries.push(fibseries[i - 1] - fibseries[i - 2]);\n        }\n    }\n}\n",
  "sourcePath": "/media/root/Lit/zepplin/nodejsZep/contracts/Fibonacci.sol",
  "compiler": {
    "name": "solc",
    "version": "0.5.16+commit.9c3226ce.Emscripten.clang"
  },
  "schemaVersion": "3.2.2",
  "updatedAt": "2020-07-15T00:10:11.817Z",
  "networkType": "ethereum",
  "devdoc": {
    "methods": {}
  },
  "userdoc": {
    "methods": {}
  }
}